:03000000020915DD
:0C091500787FE4F6D8FD75817602000EB4
:10061800CEC2B6C800CAAAB6C800D1CCCEED00D2A8
:10062800BBD1F5BBAFCCBC00BCD7CDE900202020A6
:1006380020204849542D57534E2020202020202088
:100648002020202020BBB6D3AD2020202020202031
:10065800202077656C636F6D652020202020202086
:0E0668002020202020202020203230313000A1
:100531007F287E0012084BD2A27F017E0012084B59
:10054100C2A47F017E0012084BD2A47F0A7E001252
:10055100084BC2007F30120829120847C2007F30C1
:100561001208297F257E0012084BC2007F0812085D
:1005710029120847C2007F10120829120847C20039
:100581007F0C120829120847C2007F011208297F37
:100591000A7E0012084BC2007F061208297F647E82
:0405A1000002084B01
:100676007F287E0012084BD2A27F017E0012084B13
:10068600C2A47F017E0012084BD2A47F0A7E00120C
:10069600084BC2007F36120829120847C2007F366F
:1006A6001208297F257E0012084BC2007F3E1208E1
:1006B60029120847C2007F011208297F647E0002C2
:0206C600084BDF
:0C092100C2001208297F647E0002084B0F
:0406C8008E718F722E
:1006CC00C2007F80120829120847E4F57312081E35
:1006DC000572E572700205710573E573C3942040D1
:1006EC00ECC2007F9012082912084775732012087B
:1006FC001E0572E572700205710573E573C39440B3
:02070C0040ECBF
:01070E0022C8
:10070F0078217C007D007BFF12046B7B007A0079DF
:01071F0021B8
:060720008B718A728973DF
:100726001208DF8F74E4F575E575C39574501EAB3A
:1007360071AA72A97312031FFFD20012082974014D
:0D0746002573F573E43572F572057580DBDF
:010753002283
:0B081E00857282857183E493FFD20095
:100829008F76C2A6A20092A57F017E0012084B8591
:0E0839007680D2A77F017E0012084BC2A72254
:040488008E178F1824
:10048C00E4F519F51AE51A2480FFC200120829C2F6
:10049C00007F80120829E4F51BF51C85188285174E
:1004AC00831208240518E51870020517051CE51CB5
:1004BC007002051BC39410E51B6480948040DC051E
:1004CC001AE51A70020519C39420E519648094800A
:1004DC0040B3E4F519F51AE51A2480FFC20012089E
:1004EC0029C2007F88120829E4F51BF51C851882A7
:1004FC008517831208240518E51870020517051CCA
:10050C00E51C7002051BC39410E51B6480948040AD
:10051C00DC051AE51A70020519C39420E5196480EC
:04052C00948040B3C4
:0105300022A8
:10088F00E4FDFCC3ED9FEC9E5015E4FBFA0BBB009F
:0F089F00010ABA07F8BBD0F50DBD00010C80E4CB
:0108AE002227
:040847007F647E004C
:10084B00E4FDFCC3ED9FEC9E5015E4FBFA0BBB00E3
:0F085B00010AEB640A4A70F50DBD00010C80E440
:01086A00226B
:1008C800D3EF9400EE9400400DE4FD0DBD1BFCEF4A
:0608D8001F70ED1E80EA16
:0108DE0022F7
:0C090800157115711571157115711571BF
:0109140022C0
:10075400E4FF750C0220A007AE0C050CEE70F61237
:100764000908120908E4F50F30A003750F01750C90
:100774000230A007AE0C050CEE70F6E50C640160C7
:0F0784000EE51625E0F516E50F42160FBF08C368
:010793002243
:1005A500C2A07FB47E001208C8D2A01209081209A1
:1005B50008120908120908D2A020A056750C0220BD
:1005C500A007AF0C050CEF70F6750C0230A007AF55
:1005D5000C050CEF70F61207548516121207548598
:1005E500161512075485160A12075485160B12079D
:1005F5005485160ED2A0E50A250B25122515F50FF3
:10060500B50E0F851210851511850A08850B09850C
:030615000E0D22A5
:0D07C600D2B4AF907513008F147F647E00D5
:1007D300E4FDFCC3ED9FEC9E5016E4FBFA000BBB5B
:1007E30000010AEB647C4A70F40DBD00010C80E348
:0107F30022E3
:1008F400758902758C14E4F58A75A882D28C7F0AF6
:04090400FE0207D315
:03000B0002092DBA
:03092D00B2B7322C
:080003008F993099FDC299228A
:04086B007FE87E03A1
:10086F00E4FDFCC3ED9FEC9E5015E4FBFA0BBB00BF
:0F087F00010AEB646E4A70F50DBD00010C80E4B8
:01088E002247
:1007F4008B718A728973AB71AA72A97312031FFF7A
:10080400601712000374012573F573E43572F572F1
:0A0814007F057E0012086F80DD22D0
:1008AF00759840758920E4F587758BFD758DFDC2B0
:0908BF0099D28E7FC8FE02086F79
:02079400AD07AF
:10079600E4FFFEFBFAED30E710EF25E0FFEE33FE57
:1007A600EF2401FFE43EFE8007EF25E0FFEE33FE77
:0F07B600ED25E0FD0BBB00010AEB64084A70D68D
:0107C5002211
:10000E001205311208477E067F351206C87FF07E34
:10001E000012088F12088F1205311208F4120531E2
:10002E007F801209217A06791812070F1205A5AFE3
:10003E00081207948E6D8F6EAF09120794AB07AA44
:10004E0006AE6DAF6E7C007D0A12034AEF2430F5CA
:10005E0031AE6DAF6E7C007D0A12034AED2430F591
:10006E003275332EAE02AF037C007D0A12034AEFC7
:10007E002430F5347535437F901209217B007A00C8
:10008E00793112072012086B7F881209217A0679BE
:10009E001D12070FAF101207948E6F8F70AF1112D3
:1000AE000794AB07AA06AE6FAF707C007D0A1203F1
:1000BE004AEF2430F537AE6FAF707C007D0A120325
:1000CE004AED2430F53875392EAE02AF037C007D33
:1000DE000A12034AEF2430F53A753B257F98120930
:1000EE00217B007A00793712072012086BC2B2C248
:1000FE00B3C2B5D2B520B6FDC2B530B6FD1207C635
:10010E00C2B4AE13AF147C007D641203387D33127B
:10011E00034A8E138F147C007D6412034AEF243041
:10012E00F53D753E2EAE13AF147C007D6412034A6E
:10013E007E007F0ACFCDCFCECCCE12034AEF243035
:10014E00F53FAE13AF147C007D0A12034AED243046
:10015E00F5407541561205317F8012092178217CB8
:10016E00007D007BFF7A0679221207177F90120915
:10017E00217B007A00793D12072012086BD2B2C2A1
:10018E00B3C2B5D2B520B6FDC2B530B6FD1207C6A4
:10019E00C2B4AE13AF147C007D641203387D3312EB
:1001AE00034A8E138F147C007D6412034AEF2430B1
:1001BE00F54375442EAE13AF147C007D6412034AD2
:1001CE007E007F0ACFCDCFCECCCE12034AEF2430A5
:1001DE00F545AE13AF147C007D0A12034AED2430B0
:1001EE00F5467547567F8812092178217C007D00DF
:1001FE007BFF7A0679271207177F981209217B0059
:10020E007A00794312072012086BC2B2D2B3C2B57C
:10021E00D2B520B6FDC2B530B6FD1207C6C2B4AE19
:10022E0013AF147C007D641203387D3312034A8EA3
:10023E00138F147C007D6412034AEF2430F5497548
:10024E004A2EAE13AF147C007D6412034A7E007FEB
:10025E000ACFCDCFCECCCE12034AEF2430F54BAE23
:10026E0013AF147C007D0A12034AED2430F54C7551
:10027E004D561205317F8012092178217C007D00B8
:10028E007BFF7A0679301207177F901209217B00C7
:10029E007A00794912072012086B85314F8532504A
:1002AE0085335185345285355375542085375585A0
:1002BE003856853957853A58853B59755A20853DAC
:1002CE005B853E5C853F5D85405E85415F75602048
:1002DE0085436185446285456385466485476575BA
:1002EE006620854967854A68854B69854C6A854DC8
:1002FE006B756C201208AF7F0A7E0012088F7B0090
:10030E007A00794F1207F47F647E0012088F020084
:01031E002BB3
:10031F00BB010689828A83E0225002E722BBFE02DC
:09032F00E32289828A83E493220F
:10033800EF8DF0A4A8F0CF8CF0A428CE8DF0A42ED9
:02034800FE2293
:10034A00BC000BBE0029EF8DF084FFADF022E4CC97
:10035A00F875F008EF2FFFEE33FEEC33FCEE9DEC60
:10036A00984005FCEE9DFE0FD5F0E9E4CEFD22EDA6
:10037A00F8F5F0EE8420D21CFEADF075F008EF2FF0
:10038A00FFED33FD4007985006D5F0F222C398FDE1
:05039A000FD5F0EA227E
:10039F00E709F60870FA8046E709F20870FA803E1E
:1003AF0088828C83E709F0A370FA807EE309F60850
:1003BF0070FA8076E309F20870FA806E88828C8377
:1003CF00E309F0A370FA806289828A83E0A3F608BA
:1003DF0070FA805689828A83E0A3F20870FA804A05
:1003EF0080D280FA80C680D4806580F28031801000
:1003FF0080A680EA809A80A880DA80E280CA803165
:10040F0089828A83ECFAE493A3C8C582C8CCC583DA
:10041F00CCF0A3C8C582C8CCC583CC70E9800D8948
:10042F00828A83E493A3F60870F9ECFAA9F0EDFB46
:10043F002289828A83ECFAE0A3C8C582C8CCC5831F
:10044F00CCF0A3C8C582C8CCC583CC70EA80DD8947
:10045F00828A83E493A3F20870F980CE88F0ED24AA
:10046F0002B4040050C4F582EB2402B4040050BA65
:09047F0023234582239003EF734F
:1008DF00E4FFFE12031F600C0FEF70010E09E970A9
:0508EF00F20A80EF2277
:00000001FF
